:100000000C9479000C94A1000C94A1000C94A10014
:100010000C94A1000C94A1000C94A1000C94A100DC
:100020000C94A1000C94A1000C94A1000C94A100CC
:100030000C94A1000C94A1000C94A1000C94A100BC
:100040000C949B050C94A1000C940B060C94E505F4
:100050000C94A1000C94A1000C94A1000C94A1009C
:100060000C94A1000C94A100084AD73B3BCE016E32
:1000700084BCBFFDC12F3D6C74319ABD56833DDAFF
:100080003D00C77F11BED9E4BB4C3E916BAAAABE0E
:10009000000000803F0000000000240027002A002C
:1000A00000000000250028002B00000000002300B5
:1000B00026002900040404040404040402020202C9
:1000C000020203030303030301020408102040801B
:1000D000010204081020010204081020000000089A
:1000E00000020100000304070000000000000000FF
:1000F0003D0611241FBECFEFD8E0DEBFCDBF22E00A
:10010000ACE6B1E001C01D92AF32B207E1F711E0F9
:10011000A0E0B1E0E0E8FEE102C005900D92AC364F
:10012000B107D9F710E0C9E7D0E004C02197FE017C
:100130000E942C0DC837D107C9F70E9483060C9482
:100140003E0F0C940000833081F028F4813099F048
:100150008230A1F008958730A9F08830B9F084305A
:10016000D1F4809180008F7D03C0809180008F77D3
:1001700080938000089584B58F7702C084B58F7D09
:1001800084BD08958091B0008F7703C08091B00046
:100190008F7D8093B0000895CF93DF93282F30E0B8
:1001A000F901E452FF4F8491F901E853FF4FD491D4
:1001B000F901EC54FF4FC491CC2391F081110E94BE
:1001C000A300EC2FF0E0EE0FFF1FE655FF4FA591C7
:1001D000B491EC91ED2381E090E021F480E002C045
:1001E00080E090E0DF91CF9108951F93CF93DF934C
:1001F000282F30E0F901E452FF4F8491F901E853D0
:10020000FF4FD491F901EC54FF4FC491CC23C9F0B6
:10021000162F81110E94A300EC2FF0E0EE0FFF1FBC
:10022000E056FF4FA591B4918FB7F894111105C016
:100230009C91ED2FE095E92302C0EC91ED2BEC931E
:100240008FBFDF91CF911F910895CF93DF9390E0FF
:10025000FC01E853FF4F2491FC01EC54FF4F8491C3
:10026000882361F190E0880F991FFC01EA56FF4F47
:10027000C591D491FC01E056FF4FA591B491611155
:1002800009C09FB7F8948881209582238883EC91D8
:100290002E230BC0623061F49FB7F8943881822F0F
:1002A000809583238883EC912E2B2C939FBF06C0CF
:1002B0008FB7F894E8812E2B28838FBFDF91CF91E1
:1002C00008958E3008F08E508770806480937C0093
:1002D00080917A00806480937A0080917A0086FD14
:1002E000FCCF809178002091790090E0922B0895C6
:1002F0003FB7F8948091720190917301A0917401BD
:10030000B091750126B5A89B05C02F3F19F0019645
:10031000A11DB11D3FBFBA2FA92F982F8827820F8B
:10032000911DA11DB11DBC01CD0142E0660F771FDB
:10033000881F991F4A95D1F708958F929F92AF9287
:10034000BF92CF92DF92EF92FF926B017C010E94ED
:1003500078014B015C01C114D104E104F104F1F016
:100360000E947801DC01CB0188199909AA09BB090F
:10037000883E9340A105B10570F321E0C21AD1086F
:10038000E108F10888EE880E83E0981EA11CB11CDC
:10039000C114D104E104F10419F7DDCFFF90EF900F
:1003A000DF90CF90BF90AF909F908F9008952FB720
:1003B000F89460916E0170916F018091700190913D
:1003C00071012FBF0895CF92DF92EF92FF920F93AA
:1003D0001F93CF93DF936C017A018B01C0E0D0E0D3
:1003E000CE15DF0589F0D8016D918D01D601ED9113
:1003F000FC910190F081E02DC6010995892B11F443
:100400007E0102C02196ECCFC701DF91CF911F91F1
:100410000F91FF90EF90DF90CF900895089580E0C6
:1004200090E00895FC01538D448D252F30E0842FFA
:1004300090E0821B930B541710F0CF96089501970C
:100440000895FC01918D828D981761F0828DDF01F6
:10045000A80FB11D5D968C91928D9F5F9F73928FB7
:1004600090E008958FEF9FEF0895FC01918D828DAC
:10047000981731F0828DE80FF11D858D90E0089579
:100480008FEF9FEF0895FC01918D228D892F90E0D1
:10049000805C9F4F821B91098F739927089586E78F
:1004A00091E00E94430221E0892B09F420E0822F91
:1004B0000895FC01848DDF01A80FB11DA35ABF4F21
:1004C0002C91848D90E001968F739927848FA68953
:1004D000B7892C93A089B1898C9180648C93938D7A
:1004E000848D981306C00288F389E02D80818F7D6A
:1004F00080830895EF92FF920F931F93CF93DF9322
:10050000EC0181E0888F9B8D8C8D981305C0E88964
:10051000F989808185FD24C0F62E0B8D10E00F5FD8
:100520001F4F0F731127E02E8C8DE8120CC00FB6F1
:1005300007FCFACFE889F989808185FFF5CFCE01E4
:100540000E945902F1CF8B8DFE01E80FF11DE35A95
:10055000FF4FF0820B8FEA89FB898081806207C0A0
:10056000EE89FF896083E889F989808180648083CE
:1005700081E090E0DF91CF911F910F91FF90EF907C
:100580000895CF93DF93EC01888D8823C9F0EA8921
:10059000FB89808185FD05C0A889B9898C9186FD7C
:1005A0000FC00FB607FCF5CF808185FFF2CFA88979
:1005B000B9898C9185FFEDCFCE010E945902E7CF1A
:1005C000DF91CF91089580E090E0892B29F00E947F
:1005D0004F0281110C94000008958EBD00000DB4EF
:1005E00007FEFDCF8EB5089560E082E10E94F50020
:1005F00060E083E10C94F50061E082E10E94F50087
:1006000061E083E10C94F50061E082E10E94F50075
:1006100060E083E10C94F50060E082E10E94F50067
:1006200061E083E10C94F500CF92DF92EF92FF92AC
:100630000F931F93CF93DF93EC010E94D7010881A2
:100640001981012E000C220B330B6B017C01C01AA7
:10065000D10AE20AF30A4A815B81052E000C660B7F
:10066000770B81E0C416D506E606F70608F080E0B1
:10067000DF91CF911F910F91FF90EF90DF90CF907E
:1006800008950F931F93CF93DF931F92CDB7DEB7DB
:100690008C01862F49830E946101F8019183808338
:1006A0004981842F0E946101F80120813181A901D3
:1006B0005250518340839250938382832D5931400D
:1006C000273C310510F4118210828D599F4F873CD1
:1006D000910518F4F801138212820F90DF91CF91E7
:1006E0001F910F9108959CB59F7D9CBD9CB5937FF4
:1006F0009CBD9CB59C7F9CBD9DB591609DBD682FA8
:10070000809115020E94F5008091270290912802A5
:100710008230910538F0880F991F880F991F05972F
:100720000197F1F7089580E00C9473031F93CF9322
:10073000DF931F92CDB7DEB789830E94930389812F
:100740008F710E94ED028FEF0E94ED02182F81E061
:100750000E947303812F0F90DF91CF911F91089515
:100760001F93CF93DF9300D0CDB7DEB76A83898321
:100770000E94930389818F7180620E94ED02182F7D
:100780006A81862F0E94ED0281E00E947303812F0F
:100790000F900F90DF91CF911F9108950F931F93AA
:1007A000CF938C0186E00E949603C82FC77D02304C
:1007B000110531F4C0628BE990E0A0E0B0E00DC01B
:1007C0000130110529F085E590E0A0E0B0E005C01A
:1007D000C86081E490E0A0E0B0E0809323029093B1
:1007E0002402A0932502B09326026C2F86E00E947B
:1007F000B00386E00E94960391E08C1390E0892F6D
:10080000CF911F910F910895CF930E94930381EE92
:100810000E94ED02C82F81E00E9473038C2FCF91BC
:1008200008950F931F93CF93DF930E94FC02C09112
:100830001A02DC2FCA3008F0D9E080911B02811126
:1008400002C0CD1B01C0C0E00E94930380EA0E9459
:10085000ED0205E111E0D15030F0F80181918F01F6
:100860000E94ED02F8CFCC2329F080E00E94ED0237
:10087000C150F9CF81E00E947303809113029091DF
:10088000140220911502309116028217930719F075
:1008900061E00E94F5000E9493038FEF0E94ED0239
:1008A000C82F81E00E947303C073A9F380911302E3
:1008B000909114022091150230911602821793072D
:1008C00019F060E00E94F50060E787E00E94B00345
:1008D00084FF0CC00E94040481E191E00E94140393
:1008E000811104C00E940C030E941104DF91CF917A
:1008F0001F910F910C9404030E94290F0F931F93D3
:10090000CF93DF93EC0188819981009729F02A81A8
:100910003B812617370788F48B016F5F7F4F0E945A
:100920005F0E009761F0998388831B830A832C8173
:100930003D81232B11F4FC01108281E001C080E095
:10094000DF91CF911F910F910895EF92FF920F9336
:100950001F93CF93DF93FC012481358161157105CD
:1009600011F480E019C041155105A9F07B01EC019B
:100970008A01020F131FB8010E947E04882389F3A5
:10098000288139818C819D81B701820F931F0E943C
:10099000370F1D830C8381E0DF91CF911F910F9161
:1009A000FF90EF900895CF93DF93EC0188819981B8
:1009B000009711F00E94C70D198218821D821C82B7
:1009C0001B821A82DF91CF910895CF93DF93EC01C0
:1009D0006115710561F0FB0101900020E9F7319785
:1009E000AF01461B570B0E94A504811103C0CE0125
:1009F0000E94D304CE01DF91CF910895CF93DF936E
:100A0000EC01FB0144815581608171810E94A50444
:100A1000811103C0CE010E94D304CE01DF91CF919A
:100A20000895EF92FF920F931F93CF93DF93EC0102
:100A30007B018A01BA010E947E04811104C0CE01AB
:100A40000E94D30407C01D830C83B701888199815C
:100A50000E94370FCE01DF91CF911F910F91FF9030
:100A6000EF900895CF93DF93EC01FB018617970772
:100A700061F0608171816115710529F044815581B2
:100A80000E94110502C00E94D304CE01DF91CF91D4
:100A90000895FC0111821082138212821582148241
:100AA0006115710551F0FB0101900020E9F73197C4
:100AB000AF01461B570B0C9411050895FC01808172
:100AC00091810C94C70DEF92FF920F931F93CF93D8
:100AD000DF93CDB7DEB762970FB6F894DEBF0FBED7
:100AE000CDBF8C01CB01F8011182108213821282DA
:100AF0001582148250E09E012F5F3F4F7901B901AA
:100B00000E94000AF70101900020E9F73197AF0138
:100B10004E195F09B701C8010E94110562960FB610
:100B2000F894DEBF0FBECDBFDF91CF911F910F9123
:100B3000FF90EF9008951F920F920FB60F9211241D
:100B40002F933F938F939F93AF93BF9380916E01A9
:100B500090916F01A0917001B091710130916D0180
:100B600023E0230F2D3720F40196A11DB11D05C0F0
:100B700026E8230F0296A11DB11D20936D018093DD
:100B80006E0190936F01A0937001B09371018091F9
:100B9000720190917301A0917401B0917501019659
:100BA000A11DB11D8093720190937301A0937401F4
:100BB000B0937501BF91AF919F918F913F912F910C
:100BC0000F900FBE0F901F9018951F920F920FB6A7
:100BD0000F9211242F933F934F935F936F937F93C3
:100BE0008F939F93AF93BF93EF93FF9386E791E02B
:100BF0000E945902FF91EF91BF91AF919F918F9108
:100C00007F916F915F914F913F912F910F900FBE08
:100C10000F901F9018951F920F920FB60F921124EC
:100C20002F938F939F93EF93FF93E0918601F09121
:100C300087018081E0918C01F0918D0182FD12C0CD
:100C4000908180918F018F5F8F7320919001821727
:100C500051F0E0918F01F0E0EA58FE4F958F8093BC
:100C60008F0101C08081FF91EF919F918F912F9112
:100C70000F900FBE0F901F901895E6E7F1E01382DA
:100C8000128288EE93E0A0E0B0E084839583A6838F
:100C9000B7838EE291E09183808385EC90E0958725
:100CA000848784EC90E09787868780EC90E0918B36
:100CB000808B81EC90E0938B828B82EC90E0958B23
:100CC000848B86EC90E0978B868B118E128E138E20
:100CD000148EE3E1F2E087E090E09183808388E086
:100CE00090E093838283168280E28783108685E07A
:100CF000868785E090E0A0E0B0E0848B958BA68BA2
:100D0000B78B11860895CF93DF93CDB7DEB76C977D
:100D10000FB6F894DEBF0FBECDBF789484B5826065
:100D200084BD84B5816084BD85B5826085BD85B58F
:100D3000816085BD80916E00816080936E0010920D
:100D40008100809181008260809381008091810088
:100D50008160809381008091800081608093800019
:100D60008091B10084608093B1008091B000816077
:100D70008093B00080917A00846080937A008091A3
:100D80007A00826080937A0080917A0081608093FB
:100D90007A0080917A00806880937A001092C10076
:100DA00060E08EE00E94250160E08FE00E94250156
:100DB00060E080E10E94250160E081E10E94250160
:100DC00060E082E00E94250160E083E00E9425014E
:100DD00060E084E00E94250161E083E10E9425013A
:100DE00061E082E10E9425010E94FC0204E110E022
:100DF0000E94040362E370E080E090E00E949D01A5
:100E00000E94F40262E370E080E090E00E949D01A5
:100E10000150110969F71A8219821C821B820E94F3
:100E2000FC02E0918601F091870182E08083E091ED
:100E30008201F09183011082E0918401F09185019B
:100E400083E3808310928E01E0918A01F0918B01FF
:100E500086E08083E0918801F09189018081806142
:100E60008083E0918801F09189018081886080838E
:100E7000E0918801F0918901808180688083E09110
:100E80008801F091890180818F7D80830E94D70144
:100E90007A83698388EE93E09C838B83CE010196ED
:100EA0000E941403811116C005E010E00E94FC02AC
:100EB00062E370E080E090E00E949D010E94F402F5
:100EC00062E370E080E090E00E949D010150110912
:100ED00069F7E4CFCE0101960E941403811103C08B
:100EE0000E940C033AC0E0917601F09177010190E5
:100EF000F081E02D60E386E791E009950E94D7013B
:100F00007A83698388EE93E09C838B83CE0101967C
:100F10000E941403811121C086E791E00E944302E0
:100F2000181619064CF486E791E00E942102C0973A
:100F300019F40E94040311C00E94040362E370E0EC
:100F400080E090E00E949D010E94F40262E370E064
:100F500080E090E00E949D01D9CF0E94FC02809128
:100F600013029091140220911502309116028217FB
:100F7000930719F061E00E9425018091150290917C
:100F8000160220911302309114022817390719F024
:100F900061E00E9425011FB7F89480916C018111D6
:100FA00027C0EEEBF0E08491E2EDF0E09491E82FC1
:100FB000F0E0EE0FFF1FEA56FF4FA591B491EC91C0
:100FC000E92321F461E08AE00E94F50061E08AE013
:100FD0000E9425018CB580618CBD8CB580648CBD70
:100FE00061E08DE00E94250161E08BE00E94250117
:100FF00080916C018F5F80936C011FBF8091130201
:1010000090911402209115023091160282179307D5
:1010100019F060E00E94F50081E00E94730365E032
:1010200070E080E090E00E949D016CE080E00E9412
:10103000B0036FE584E00E94B00382E090E00E947C
:10104000CE03882319F081E08093190286E00E9484
:10105000960380E090E00E94CE030E94930380E517
:101060000E94ED0283E70E94ED0281E00E9473037B
:1010700060E08DE10E94B00360E08CE10E94B0036B
:1010800010921B0260E787E00E94B0036CE485E0E9
:101090000E94B0030E94930382EE0E94ED0281E061
:1010A0000E9473030E94040480E00E94960381FD65
:1010B0000BC0682F626080E00E94B00365E070E0C2
:1010C00080E090E00E949D0180E00E949603682FDE
:1010D0006E7F80E00E94B00363E785E00E94B0036A
:1010E00086E00E949603682F676086E00E94B00346
:1010F00082E090E00E94CE03D09021020E949303F0
:101100008AE20E94ED0204E211E07801C02ED00EC6
:10111000DE1431F0F70181917F010E94ED02F8CFDA
:1011200081E00E947303F09021020E94930380E308
:101130000E94ED02FC0CF01631F0F80181918F0154
:101140000E94ED02F8CF81E00E94730360911A02C1
:1011500081E10E94B0030E94040384EB782E00E03A
:1011600010E07801F6E0EF0EF11C68018CE0C80E8B
:10117000D11C5801E2E1AE0EB11C94EF892E9924E6
:1011800093940E9404034FE050E06EE070E084E02E
:1011900091E00E94410341E150E060E170E080E0B5
:1011A00091E00E94410380910A01882329F0609117
:1011B00004017091050104C060910001709101016A
:1011C000072E000C880B990B0E94420A9B01AC0170
:1011D0000E94850B0E94560C769E9001779E300DE2
:1011E0001124B901330F880B990B0E94420A2BED91
:1011F0003FE049E450E40E94E40B0E94560C7093D7
:1012000009016093080182E00E94CC0090930C01D8
:1012100080930B0183E00E94CC0090930E01809399
:101220000D0184E00E94CC009093100180930F0187
:101230001A8E198E1C8E1B8E0E94FC0280910A0150
:10124000811103C065E471E002C06CE371E0CE017E
:1012500007960E9449056EE471E0CE0101960E9456
:101260004905BE01695F7F4FCE0101960E94FE04D1
:10127000BC0100E010E0C8010E943205CE010196D9
:101280000E945E05CE0107960E945E0560911601E0
:10129000709117014AE0CE0107960E94630565E54B
:1012A00071E0CE0101960E944905BE01695F7F4F42
:1012B000CE0101960E94FE04BC01C7010E943205C6
:1012C000CE0101960E945E05CE0107960E945E0542
:1012D00060911C0170911D014AE0CE0143960E946D
:1012E000630560911C0170911D014AE0CE010D96CD
:1012F0000E94630560911801709119014AE0CE01C6
:1013000007960E9463056EE571E0CE0101960E948A
:101310004905BE01695F7F4FCE0101960E94FE0420
:1013200061E671E00E94E504BE01635F7F4F0E94A9
:10133000FE0465E671E00E94E504BE016D5E7F4F2C
:101340000E94FE04BC01C6010E943205CE01019636
:101350000E945E05CE0107960E945E05CE010D96A5
:101360000E945E05CE0143960E945E05F80144810D
:1013700055816081718186E791E00E94E30142E03E
:1013800050E069E671E086E791E00E94E3010A5FC0
:101390001F4F0A151B0551F70E94D7017A8F698FDD
:1013A0009C8E8B8ECE0149960E941403811121C020
:1013B00086E791E00E944302181619064CF486E76E
:1013C00091E00E942102C09719F40E94040311C009
:1013D0000E94040362E370E080E090E00E949D01BF
:1013E0000E94F40262E370E080E090E00E949D01C0
:1013F000D9CF0E94D7010E9411040E94E302C1CEFE
:101400004532510520F4423010F00C940B0AFB01D8
:101410001082CB010895BB274A3031F4992322F47E
:10142000BDE2909581959F4F0C94170ABB27FB0155
:101430005527AA27880F991FAA1FA41710F0A41BCD
:1014400083955051B9F7A05DAA3308F0A95DA19327
:10145000009779F7B111B1931192CB010C94300A36
:10146000DC01FC01672F71917723E1F7329704C00B
:101470007C916D9370836291AE17BF07C8F3089596
:10148000E89409C097FB3EF490958095709561951E
:101490007F4F8F4F9F4F9923A9F0F92F96E9BB27D4
:1014A0009395F695879577956795B795F111F8CF50
:1014B000FAF4BB0F11F460FF1BC06F5F7F4F8F4FBB
:1014C0009F4F16C0882311F096E911C0772321F0B1
:1014D0009EE8872F762F05C0662371F096E8862F49
:1014E00070E060E02AF09A95660F771F881FDAF7A0
:1014F000880F9695879597F908950E94900A0C9405
:10150000010B0E94F30A38F00E94FA0A20F095239A
:1015100011F00C94EA0A0C94F00A11240C94350B87
:101520000E94120B70F3959FC1F3950F50E0551F69
:10153000629FF001729FBB27F00DB11D639FAA2728
:10154000F00DB11DAA1F649F6627B00DA11D661F77
:10155000829F2227B00DA11D621F739FB00DA11D98
:10156000621F839FA00D611D221F749F3327A00D52
:10157000611D231F849F600D211D822F762F6A2FEE
:1015800011249F5750409AF0F1F088234AF0EE0F53
:10159000FF1FBB1F661F771F881F91505040A9F780
:1015A0009E3F510580F00C94EA0A0C94350B5F3F86
:1015B000E4F3983ED4F3869577956795B795F795BC
:1015C000E7959F5FC1F7FE2B880F911D9695879534
:1015D00097F9089597F99F6780E870E060E00895B3
:1015E0009FEF80EC089500240A941616170618063B
:1015F0000906089500240A94121613061406050617
:101600000895092E0394000C11F4882352F0BB0FA7
:1016100040F4BF2B11F460FF04C06F5F7F4F8F4F0A
:101620009F4F089557FD9058440F551F59F05F3F45
:1016300071F04795880F97FB991F61F09F3F79F0F4
:1016400087950895121613061406551FF2CF469576
:10165000F1DF08C0161617061806991FF1CF8695F8
:101660007105610508940895E894BB2766277727DC
:10167000CB0197F908952F923F924F925F926F920C
:101680007F928F929F92AF92BF92CF92DF92EF9212
:10169000FF920F931F93CF93DF93CDB7DEB7CA1B93
:1016A000DB0B0FB6F894DEBF0FBECDBF09942A88BE
:1016B000398848885F846E847D848C849B84AA8466
:1016C000B984C884DF80EE80FD800C811B81AA81F3
:1016D000B981CE0FD11D0FB6F894DEBF0FBECDBFBE
:1016E000ED0108950E94F30A60F080E891E009F4AA
:1016F0009EEF0E94FA0A28F040E851E071F45EEF94
:101700000CC00C94F00A0C94340BE92FE0780E9482
:10171000120B40F3092E052AB1F3261737074807A5
:10172000590738F00E2E07F8E02569F0E025E0644F
:101730000AC0EF6307F8009407FADB01B9019D01C5
:10174000DC01CA01AD01EF930E94FB0B0E94010B6B
:101750000E94B50B5F91552339F02BED3FE049E432
:1017600050FD49EC0C94C00C0895DF93DD27B92F90
:10177000BF7740E85FE31616170648075B0718F4C3
:10178000D92F0E94B30C9F938F937F936F930E94E6
:10179000BB0CE8E6F0E00E948C0C0E94010B2F913C
:1017A0003F914F915F910E94900ADD2351F0905834
:1017B000A2EA2AED3FE049EC5FE3D0785D270E9482
:1017C000D70CDF910C94010B0E94F80B0C94010BC9
:1017D0000E94FA0A58F00E94F30A40F029F45F3F91
:1017E00029F00C94EA0A51110C94350B0C94F00A70
:1017F0000E94120B68F39923B1F3552391F3951BC3
:10180000550BBB27AA2762177307840738F09F5F21
:101810005F4F220F331F441FAA1FA9F335D00E2E8E
:101820003AF0E0E832D091505040E695001CCAF7FB
:101830002BD0FE2F29D0660F771F881FBB1F2617BE
:1018400037074807AB07B0E809F0BB0B802DBF0195
:10185000FF2793585F4F3AF09E3F510578F00C9464
:10186000EA0A0C94350B5F3FE4F3983ED4F3869577
:1018700077956795B795F7959F5FC9F7880F911D85
:101880009695879597F90895E1E0660F771F881F71
:10189000BB1F621773078407BA0720F0621B730B24
:1018A000840BBA0BEE1F88F7E09508950E945D0C3B
:1018B0006894B1110C94350B08950E941A0B88F0AE
:1018C0009F5798F0B92F9927B751B0F0E1F0660F04
:1018D000771F881F991F1AF0BA95C9F714C0B13045
:1018E00091F00E94340BB1E008950C94340B672FF3
:1018F000782F8827B85F39F0B93FCCF38695779574
:101900006795B395D9F73EF490958095709561955C
:101910007F4F8F4F9F4F0895DF93CF931F930F9368
:10192000FF92EF92DF927B018C01689406C0DA2E61
:10193000EF010E94900AFE01E894A591259135914E
:1019400045915591A6F3EF010E94D70CFE01970136
:10195000A801DA9469F7DF90EF90FF900F911F9143
:10196000CF91DF9108959B01AC0160E070E080E8C9
:101970009FE30C94E40B9B01AC010C947D0A50583E
:10198000BB27AA270E94D70C0C94010B0E94F30AD4
:1019900038F00E94FA0A20F039F49F3F19F426F437
:1019A0000C94F00A0EF4E095E7FB0C94EA0AE92F98
:1019B0000E94120B58F3BA17620773078407950742
:1019C00020F079F4A6F50C94340B0EF4E0950B2E70
:1019D000BA2FA02D0B01B90190010C01CA01A00181
:1019E0001124FF27591B99F0593F50F4503E68F1DC
:1019F0001A16F040A22F232F342F4427585FF3CF1D
:101A0000469537952795A795F0405395C9F77EF4ED
:101A10001F16BA0B620B730B840BBAF09150A1F036
:101A2000FF0FBB1F661F771F881FC2F70EC0BA0FBC
:101A3000621F731F841F48F4879577956795B79544
:101A4000F7959E3F08F0B0CF9395880F08F099273F
:101A5000EE0F979587950895EE0FFF1F0590F4916F
:101A6000E02D0994CF93DF938230910510F482E04A
:101A700090E0E0912D02F0912E0220E030E0C0E0F5
:101A8000D0E0309711F14081518148175907C0F0DB
:101A90004817590761F482819381209719F09B833D
:101AA0008A832BC090932E0280932D0226C021158D
:101AB000310519F04217530718F49A01BE01DF01EE
:101AC000EF010280F381E02DDCCF2115310509F112
:101AD000281B390B2430310590F412968D919C917E
:101AE00013976115710521F0FB019383828304C074
:101AF00090932E0280932D02FD01329644C0FD0189
:101B0000E20FF31F81939193225031092D933C935F
:101B10003AC020912B0230912C02232B41F42091CA
:101B200020013091210130932C0220932B0220912F
:101B30001E0130911F012115310541F42DB73EB72B
:101B40004091220150912301241B350BE0912B027F
:101B5000F0912C02E217F307A0F42E1B3F0B28177D
:101B6000390778F0AC014E5F5F4F2417350748F016
:101B70004E0F5F1F50932C0240932B028193919341
:101B800002C0E0E0F0E0CF01DF91CF9108950F9324
:101B90001F93CF93DF93009709F48CC0FC01329719
:101BA0001382128200912D0210912E02011511054F
:101BB00081F420813181820F931F20912B0230917B
:101BC0002C022817390779F5F0932C02E0932B02A9
:101BD00071C0D80140E050E0AE17BF0750F4129634
:101BE0002D913C911397AD012115310509F1D901D2
:101BF000F3CF9D01DA013383228360817181860FE7
:101C0000971F8217930769F4EC0128813981260F09
:101C1000371F2E5F3F4F318320838A819B819383BF
:101C20008283452B29F4F0932E02E0932D0242C0CB
:101C30001396FC93EE931297ED01499159919E01F1
:101C4000240F351FE217F30771F480819181840F0F
:101C5000951F029611969C938E9382819381139681
:101C60009C938E931297E0E0F0E0D80112968D914C
:101C70009C911397009719F0F8018C01F6CF8D9184
:101C80009C9198012E5F3F4F820F931F20912B0252
:101C900030912C022817390769F4309729F41092F3
:101CA0002E0210922D0202C01382128210932C0277
:101CB00000932B02DF91CF911F910F910895A0E027
:101CC000B0E0E5E6FEE00C943F0BEC01009721F458
:101CD000CB010E94320DB8C0FC01E60FF71F9C013A
:101CE00022503109E217F30708F4ACC0D9010D9175
:101CF0001C91119706171707B0F00530110508F46D
:101D00009FC0C80104978617970708F499C002502E
:101D10001109061B170B019311936D937C93CF014F
:101D20000E94C70D8DC05B01A01AB10A4C01800E44
:101D3000911EA0912D02B0912E0240E050E0E12CC6
:101D4000F12C109709F44AC0A815B905D1F56D908A
:101D50007C901197630182E0C80ED11CCA14DB0489
:101D600080F1A3014A195B096A0182E0C80ED11C07
:101D70001296BC9012971396AC91B5E0CB16D10495
:101D800040F0B282A38351834083D9016D937C9349
:101D90000AC00E5F1F4FC301800F911FF90191838D
:101DA0008083EB2DFA2FE114F10431F0D701139663
:101DB000FC93EE93129744C0F0932E02E0932D0211
:101DC0003FC08D919C9111974817590708F4AC01B9
:101DD0007D0112960D90BC91A02DB3CF80912B0266
:101DE00090912C0288159905E1F446175707C8F41D
:101DF00080911E0190911F01009741F48DB79EB70D
:101E00004091220150912301841B950BE817F9079B
:101E1000C8F4F0932C02E0932B02F90171836083E4
:101E20000FC0CB010E94320D7C01009759F0A80130
:101E3000BE010E942E0FCE010E94C70DC70104C033
:101E4000CE0102C080E090E0CDB7DEB7EEE00C94AA
:101E50005B0B81E090E0F8940C943E0FFB01DC01F9
:101E600002C001900D9241505040D8F70895FB01F7
:101E7000DC0101900D920020E1F70895F894FFCF66
:101E80000000000000000000000000000000000052
:101E90000000000000010000000000000000000041
:101EA0002F028000300000000000000000007A02D5
:101EB000E3011202C10243022102350243616D694E
:101EC0006E61746100526F746163696F6E004D6F73
:101ED000646F3A2000416E67756C6F3A2000413A9A
:0C1EE0000020423A0020433A000D0A00A6
:00000001FF
