:100000000C9458000C9480000C9480000C94800098
:100010000C9480000C9480000C9480000C94800060
:100020000C9480000C9480000C9480000C94D205F9
:100030000C9480000C9480000C9480000C94800040
:100040000C9430050C9480000C94A0050C947A0557
:100050000C9480000C9480000C9480000C94800020
:100060000C9480000C948000000000002500280003
:100070002B00040404040404040402020202020229
:10008000030303030303010204081020408001025C
:1000900004081020010204081020000000080002DB
:1000A00001000003040700000000000000009306A8
:1000B00011241FBECFEFD8E0DEBFCDBF12E0A0E01D
:1000C000B1E0E0E6FAE102C005900D92A231B1077D
:1000D000D9F722E0A2E1B2E001C01D92AA3FB20727
:1000E000E1F710E0C8E5D0E004C02197FE010E94CE
:1000F0001C0BC735D107C9F70E94D9060C942E0DE9
:100100000C94000090E0FC01E656FF4F3491FC0196
:10011000EA57FF4F2491FC01EE58FF4FE491EE2384
:1001200009F43BC0332339F1333091F038F43130E6
:10013000A9F0323001F584B58F7D12C0373091F0CF
:100140003830A1F03430B9F4809180008F7D03C045
:10015000809180008F77809380000DC084B58F7769
:1001600084BD09C08091B0008F7703C08091B0003A
:100170008F7D8093B000F0E0EE0FFF1FE859FF4F36
:10018000A591B4918FB7F894EC91611103C02095BB
:100190002E2301C02E2B2C938FBF08953FB7F894C8
:1001A00080913D0290913E02A0913F02B0914002A9
:1001B00026B5A89B05C02F3F19F00196A11DB11DC2
:1001C0003FBFBA2FA92F982F8827820F911DA11DFD
:1001D000B11DBC01CD0142E0660F771F881F991F3A
:1001E0004A95D1F708958F929F92AF92BF92CF9286
:1001F000DF92EF92FF926B017C010E94CE004B01D7
:100200005C01C114D104E104F104F1F00E94CE00BC
:10021000DC01CB0188199909AA09BB09883E9340E2
:10022000A105B10570F321E0C21AD108E108F10877
:1002300088EE880E83E0981EA11CB11CC114D10465
:10024000E104F10419F7DDCFFF90EF90DF90CF903C
:10025000BF90AF909F908F9008952FB7F8946091C2
:10026000390270913A0280913B0290913C022FBF7B
:100270000895CF92DF92EF92FF920F931F93CF9347
:10028000DF936C017A018B01C0E0D0E0CE15DF0571
:1002900089F0D8016D918D01D601ED91FC9101900D
:1002A000F081E02DC6010995892B11F47E0102C071
:1002B0002196ECCFC701DF91CF911F910F91FF9055
:1002C000EF90DF90CF900895089580E090E008953A
:1002D000FC01538D448D252F30E0842F90E0821B4C
:1002E000930B541710F0CF96089501970895FC01D1
:1002F000918D828D981761F0828DDF01A80FB11D5D
:100300005D968C91928D9F5F9F73928F90E0089580
:100310008FEF9FEF0895FC01918D828D981731F03A
:10032000828DE80FF11D858D90E008958FEF9FEF8E
:100330000895FC01918D228D892F90E0805C9F4F64
:10034000821B91098F739927089581E492E00E949E
:10035000990121E0892B09F420E0822F0895FC0106
:10036000848DDF01A80FB11DA35ABF4F2C91848D3E
:1003700090E001968F739927848FA689B7892C9373
:10038000A089B1898C9180648C93938D848D98130E
:1003900006C00288F389E02D80818F7D80830895D7
:1003A000EF92FF920F931F93CF93DF93EC0181E0C5
:1003B000888F9B8D8C8D981305C0E889F989808181
:1003C00085FD24C0F62E0B8D10E00F5F1F4F0F73BD
:1003D0001127E02E8C8DE8120CC00FB607FCFACF67
:1003E000E889F989808185FFF5CFCE010E94AF01B0
:1003F000F1CF8B8DFE01E80FF11DE35AFF4FF08224
:100400000B8FEA89FB898081806207C0EE89FF89B2
:100410006083E889F98980818064808381E090E04D
:10042000DF91CF911F910F91FF90EF900895CF939F
:10043000DF93EC01888D8823C9F0EA89FB898081EC
:1004400085FD05C0A889B9898C9186FD0FC00FB6BE
:1004500007FCF5CF808185FFF2CFA889B9898C91FF
:1004600085FFEDCFCE010E94AF01E7CFDF91CF91A5
:10047000089580E090E0892B29F00E94A501811168
:100480000C94000008958EBD00000DB407FEFDCF52
:100490008EB50895CF92DF92EF92FF92CF93DF93C4
:1004A000EC01603282E078070CF03DC077FD06C0B9
:1004B000653B71052CF064EB70E002C060E070E019
:1004C000898128E830E06901C81AD10887FDD394F2
:1004D000CC0CDD1CCC0CDD1C0D2C000CEE08FF0838
:1004E0008A8128E532E0281B310987FD3395220FE8
:1004F000331F220F331FC901330FAA0BBB0B9C0103
:10050000AD012C193D094E095F09DB010E94AC0ABF
:1005100024EB30E040E050E00E94820AC20ED31E7D
:10052000E41EF51EB60188818C3080F5998148E87B
:1005300050E0491B510997FD5395440F551F440F37
:10054000551F6417750784F09A8128E532E0291B4E
:10055000310997FD3395220F331F220F331FAB0153
:10056000261737070CF4A90142505109440F551FB3
:100570002FB7F89490E0FC01EE0FFF1F8E0F9F1F26
:10058000FC01ED5EFD4F528341832FBFDF91CF9180
:10059000FF90EF90DF90CF9008959CB59F7D9CBD1C
:1005A0009CB5937F9CBD9CB59C7F9CBD9DB5916087
:1005B0009DBD682F8091E0020E9482008091F2022E
:1005C0009091F3028230910538F0880F991F880FBF
:1005D000991F05970197F1F70895CF93DF9300973F
:1005E00079F0FC0101900020E9F73197AF01481B39
:1005F000590BBC0181E492E00E943901EC0102C078
:10060000C0E0D0E042E050E06CE671E081E492E0CE
:100610000E9439018C0F9D1FDF91CF9108950E9498
:10062000190D0F931F93CF93DF93EC01888199816C
:10063000009729F02A813B812617370788F48B0120
:100640006F5F7F4F0E944F0C009761F09983888302
:100650001B830A832C813D81232B11F4FC01108222
:1006600081E001C080E0DF91CF911F910F9108954B
:10067000EF92FF920F931F93CF93DF93FC0124819E
:1006800035816115710511F480E019C041155105DE
:10069000A9F07B01EC018A01020F131FB8010E942F
:1006A0001103882389F3288139818C819D81B701C9
:1006B000820F931F0E94270D1D830C8381E0DF9121
:1006C000CF911F910F91FF90EF900895CF93DF93FB
:1006D000EC0188819981009711F00E94B70B198273
:1006E00018821D821C821B821A82DF91CF9108958D
:1006F000CF93DF93EC016115710561F0FB0101906F
:100700000020E9F73197AF01461B570B0E943803D1
:10071000811103C0CE010E946603CE01DF91CF910B
:100720000895CF93DF93EC01FB01448155816081F3
:1007300071810E943803811103C0CE010E946603BB
:10074000CE01DF91CF910895EF92FF920F931F9307
:10075000CF93DF93EC017B018A01BA010E94110360
:10076000811104C0CE010E94660307C01D830C8363
:10077000B701888199810E94270DCE01DF91CF9129
:100780001F910F91FF90EF900895FB01DC011196EE
:100790001C921E9213961C921E92129715961C92F2
:1007A0001E9214978617970749F060817181611531
:1007B000710521F0448155810C94A4030895FC0136
:1007C00011821082138212821582148261157105C2
:1007D00051F0FB0101900020E9F73197AF01461B72
:1007E000570B0C94A4030895FC01808191810C9413
:1007F000B70BCF93DF93CDB7DEB72C970FB6F89436
:10080000DEBF0FBECDBFBC01CE0107960E94C5035F
:100810006FE671E0CE0101960E94DF03BE01695FC1
:100820007F4FCE0101960E949103FC0144815581C6
:100830006081718181E492E00E94390142E050E0E0
:100840006CE671E081E492E00E943901CE010196EC
:100850000E94F403CE0107960E94F4032C960FB673
:10086000F894DEBF0FBECDBFDF91CF910895EF9218
:10087000FF920F931F93CF93DF93CDB7DEB76297AD
:100880000FB6F894DEBF0FBECDBF8C01CB01F801CF
:1008900011821082138212821582148250E09E010E
:1008A0002F5F3F4F7901B9010E94420AF701019081
:1008B0000020E9F73197AF014E195F09B701C80170
:1008C0000E94A40362960FB6F894DEBF0FBECDBFA0
:1008D000DF91CF911F910F91FF90EF9008958F922C
:1008E0009F92AF92BF92CF92DF92FF920F931F938E
:1008F000CF93DF93CDB7DEB76E970FB6F894DEBF18
:100900000FBECDBFF62EFC01E15BFF4F2081318190
:1009100046E0429FF001439FF00D1124DC01AB5BE8
:10092000BF4F2D913C91E20FF31F7496EE0FFF1F06
:10093000E80FF91FC580D680662331F0FC01E55B26
:10094000FF4F0081118102C000E010E05C0129E44A
:10095000A20EB11C4C01E2E58E0E911CFF2021F08D
:10096000F5012081318102C024EB30E0021713072A
:100970000CF064C0B801C4010E944A0264E670E051
:1009800080E090E00E94F3004AE0B801CE010796B3
:100990000E9437044AE0B601CE010D960E9437044A
:1009A0004AE060E070E0CE0143960E94370467E7BA
:1009B00071E0CE0149960E94DF03BE016D5E7F4F5C
:1009C000CE0149960E9491036DE771E00E94780381
:1009D000BE01635F7F4F0E94910366E871E00E9451
:1009E000780360E971E00E94780362E971E00E9497
:1009F0007803BE01695F7F4F0E949103BC01CE0165
:100A000001960E94C503CE0101960E94F903CE0112
:100A100001960E94F403CE0149960E94F403CE0190
:100A200043960E94F403CE010D960E94F403CE017A
:100A300007960E94F4030F5F1F4F90CF6E960FB67C
:100A4000F894DEBF0FBECDBFDF91CF911F910F9104
:100A5000FF90DF90CF90BF90AF909F908F900895C0
:100A60001F920F920FB60F9211242F933F938F93E3
:100A70009F93AF93BF938091390290913A02A091D6
:100A80003B02B0913C023091380223E0230F2D3716
:100A900020F40196A11DB11D05C026E8230F029682
:100AA000A11DB11D209338028093390290933A0220
:100AB000A0933B02B0933C0280913D0290913E0294
:100AC000A0913F02B09140020196A11DB11D8093FB
:100AD0003D0290933E02A0933F02B0934002BF912B
:100AE000AF919F918F913F912F910F900FBE0F90DB
:100AF0001F9018951F920F920FB60F9211242F93EB
:100B00003F934F935F936F937F938F939F93AF9395
:100B1000BF93EF93FF9381E492E00E94AF01FF91B6
:100B2000EF91BF91AF919F918F917F916F915F9165
:100B30004F913F912F910F900FBE0F901F901895DE
:100B40001F920F920FB60F9211242F938F939F93A2
:100B5000EF93FF93E0915102F09152028081E09176
:100B60005702F091580282FD12C0908180915A0282
:100B70008F5F8F7320915B02821751F0E0915A02D0
:100B8000F0E0EF5BFD4F958F80935A0201C08081AA
:100B9000FF91EF919F918F912F910F900FBE0F902A
:100BA0001F9018951F920F920FB60F9211242F933A
:100BB0003F934F935F936F937F938F939F93AF93E5
:100BC000BF93EF93FF938091120287FF05C01092AD
:100BD0008500109284001BC020911202022E000C8E
:100BE000330B8091370290E02817390784F4809105
:100BF0001202082E000C990BFC01EE0FFF1F8E0F46
:100C00009F1FFC01ED5EFD4F808186FD15C0809128
:100C100012028F5F8093120220911202022E000CAA
:100C2000330B8091370290E028173907C4F4809184
:100C300012028C3064F113C080911202082E000C55
:100C4000990BFC01EE0FFF1F8E0F9F1FFC01ED5E45
:100C5000FD4F808160E08F730E948200D8CF809129
:100C6000840090918500049680349C4918F480E4B7
:100C70009CE905C080918400909185000496909332
:100C80008900809388008FEF809312023BC02091EF
:100C900084003091850080911202082E000C990B7F
:100CA000FC01EE0FFF1F8E0F9F1FFC01ED5EFD4F3D
:100CB00081819281820F931F909389008093880095
:100CC00080911202082E000C990BFC01EE0FFF1F01
:100CD0008E0F9F1FFC01ED5EFD4F808186FF12C0CD
:100CE00080911202082E000C990BFC01EE0FFF1FE1
:100CF0008E0F9F1FFC01ED5EFD4F808161E08F73C1
:100D00000E948200FF91EF91BF91AF919F918F91CF
:100D10007F916F915F914F913F912F910F900FBEF7
:100D20000F901F901895E1E4F2E01382128288EE92
:100D300093E0A0E0B0E084839583A683B7838EE53B
:100D400091E09183808385EC90E09587848784ECA3
:100D500090E09787868780EC90E0918B808B81EC88
:100D600090E0938B828B82EC90E0958B848B86EC69
:100D700090E0978B868B118E128E138E148EEEED73
:100D8000F2E080E390E09183808381E390E09383BD
:100D90008283168280E28783108685E0868785E0DD
:100DA00090E0A0E0B0E0848B958BA68BB78B11868A
:100DB0000895CF93DF93CDB7DEB7C75FD1090FB6E4
:100DC000F894DEBF0FBECDBF789484B5826084BD39
:100DD00084B5816084BD85B5826085BD85B581603F
:100DE00085BD80916E00816080936E0010928100BD
:100DF0008091810082608093810080918100816078
:100E00008093810080918000816080938000809138
:100E1000B10084608093B1008091B00081608093C4
:100E2000B00080917A00846080937A0080917A008B
:100E3000826080937A0080917A00816080937A004A
:100E400080917A00806880937A001092C100E091CE
:100E50005102F091520282E08083E0914D02F091C4
:100E60004E021082E0914F02F091500280E18083A7
:100E700010925902E0915502F091560286E080836B
:100E8000E0915302F0915402808180618083E0916F
:100E90005302F0915402808188608083E091530274
:100EA000F0915402808180688083E0915302F09138
:100EB000540280818F7D80838EE991E00E94ED0253
:100EC0001B821A821D821C82AE0142595F4F8E0125
:100ED000025F1E4FB8E1BB2E82E3E82EF12CAA245C
:100EE000AA9498EBC92E9BE0D92ECA01805591098E
:100EF000BA0163547109E6E0F1E0DC0158972B2D4B
:100F000001900D922A95E1F7DC0111961C921E9238
:100F10001396FC92EE92129715961C921E921497BD
:100F200017961C921E92169719961C921E9218974D
:100F30001B961C921E921A97FB01319710822091EA
:100F400037022C3090F431E0320F30933702FB013E
:100F5000208330E0F901EE0FFF1F2E0F3F1FF90134
:100F6000ED5EFD4FD282C18202C0DB01AC92889659
:100F7000685D7F4F8417950709F0BDCFAC01405BDA
:100F80005F4F4017510709F0B0CFCA55DF4F1882A5
:100F9000C65AD040FE01E955FF4FC051DF4FF983DB
:100FA000E883C05FD0408EE111928A95E9F7CB5378
:100FB000DF4F1882C55CD0408CE0EEE1F1E0DE014D
:100FC000AA53BF4F01900D928A95E1F78CE0EEE1B4
:100FD000F1E0DE01AE52BF4F01900D928A95E1F72C
:100FE00082E491E0DE0192962AE231E07E01FAE4A9
:100FF000EF0EF11C41E050E08C01FC016191719118
:10100000CF01F8010485158511961C930E93139654
:101010007C936E9312978901F901619171919F01FF
:10102000F80104851585F7011183008373836283BA
:1010300017961C921E92169757834683A05BBF4F4C
:10104000F0E5EF0EF11C61E08E349607A9F688EA10
:1010500091E00E94ED0281E0CA55DF4F8883C65AB5
:10106000D04084EB91E00E94ED0281EC91E00E947F
:10107000ED0260E0CE0101960E946F0468EE73E01D
:1010800080E090E00E94F30084ED91E00E94ED0288
:1010900061E0CE0101960E946F0468EE73E080E08B
:1010A00090E00E94F30024E6422E512C612C712C1A
:1010B000CB53DF4F8881C55CD040882309F49AC1A7
:1010C000CA55DF4F8881C65AD040882381F0CE01AF
:1010D0008A539F4FCE50DF4F99838883C25FD040A1
:1010E0008E01005E1F4F1E019EEF391A46C00E94FE
:1010F0002D017B836A8382E390E09D838C830E9431
:101100002D010A811B81012E000C220B330BAB0138
:10111000BC01401B510B620B730B8C819D81092E0E
:10112000000CAA0BBB0B481759076A077B0778F21C
:1011300080E00E94CD0287E10E9443028FEF0E946F
:101140004302182F81E00E94CD0210FDD8CF0E94EB
:101150002D014B01770FAA08BB0880E00E94CD0249
:1011600087E10E9443028FEF0E944302182F81E023
:101170000E94CD0210FF41C1C2CFD8011496CD907C
:10118000DC9015970D2C000CEE08FF08CE50DF4FB9
:10119000E881F981C25FD040A191B191CE50DF4F7B
:1011A000F983E883C25FD040F80182809380092CE4
:1011B000000CAA08BB088C189D08AE08BF08A50142
:1011C00094010E94AC0AA30192010E94820ADA01F2
:1011D000C9018C0D9D1DAE1DBF1DCC50DF4F8883F6
:1011E0009983AA83BB83C45FD040D8018D939C931D
:1011F000CE50DF4FE881F981C25FD040A285B38530
:10120000A50194010E94AC0AA30192010E94820AE6
:10121000C20ED31EE41EF51ED8019996DC92CE9222
:1012200098974AE0CC50DF4F68817981C45FD04005
:10123000CE018C519F4F0E94370466EE71E0CE01C3
:1012400086519F4F0E94DF03BE016C517F4FCE013C
:1012500086519F4F0E949103BC01CE0182529F4F45
:101260000E94C503CE0182529F4F0E94F903CE0116
:1012700082529F4F0E94F403CE0186519F4F0E94DD
:10128000F403CE018C519F4F0E94F403F80160A536
:1012900071A54AE0CE018C519F4F0E94370466EF42
:1012A00071E0CE0186519F4F0E94DF03BE016C5159
:1012B0007F4FCE0186519F4F0E949103BC01CE010A
:1012C00082529F4F0E94C503CE0182529F4F0E94BF
:1012D000F903CE0182529F4F0E94F403CE01865142
:1012E0009F4F0E94F403CE018C519F4F0E94F40344
:1012F000005B1F4F0215130509F03FCFCB53DF4FA3
:101300001882C55CD0407E01F0E2EF0EF11CBB24D8
:10131000B394870182E0C82ED12CD80116966D9126
:101320007C9117978D919C9111976817790709F413
:1013300048C01A961C92681779071CF08FEF9FEF30
:1013400002C081E090E0680F791FF801778366831F
:10135000C8010B960E944A02D80116966D917C91A5
:1013600017974AE0CE018C519F4F0E94370466E0E8
:1013700072E0CE0186519F4F0E94DF03BE016C5187
:101380007F4FCE0186519F4F0E949103BC01CE0139
:1013900082529F4F0E94C503CE0182529F4F0E94EE
:1013A000F903CE0182529F4F0E94F403CE01865171
:1013B0009F4F0E94F403CE018C519F4F0E94F40373
:1013C00002C0F801B286085D1F4FCA94CD2821F0F3
:1013D000CC24C394D12CA1CF6AE070E080E090E0EF
:1013E0000E94F30040E5E40EF11CE214F30409F05E
:1013F00090CF5ECE0E943902FDCF0E942D01DC010C
:10140000CB0188199909AA09BB09C297A105B105A1
:1014100008F475CE1091E5021E3110F4012F01C0C1
:101420000EE18091E602811102C0101B01C010E0A4
:1014300080E00E94CD0281E60E944302DE01A955B0
:10144000BF4F7D01015038F08FEF0E944302F7013A
:1014500081937F01F7CF112329F08FEF0E94430280
:101460001150F9CF81E00E94CD0280E00E94CD02B0
:1014700087E20E94430280E70E94430281E00E94CB
:10148000CD026BCE4532510520F4423010F00C9461
:101490004D0AFB011082CB010895BB274A3031F47D
:1014A000992322F4BDE2909581959F4F0C94590A9F
:1014B000BB27FB015527AA27880F991FAA1FA4172E
:1014C00010F0A41B83955051B9F7A05DAA3308F022
:1014D000A95DA193009779F7B111B1931192CB0156
:1014E0000C94720ADC01FC01672F71917723E1F7FC
:1014F000329704C07C916D9370836291AE17BF07E1
:10150000C8F30895052E97FB1EF400940E94990AD3
:1015100057FD07D00E94EB0A07FC03D04EF40C9451
:10152000990A50954095309521953F4F4F4F5F4F09
:10153000089590958095709561957F4F8F4F9F4F3F
:1015400008950E940D0BA59F900DB49F900DA49F30
:10155000800D911D11240895B7FF0C94A10A0E94DB
:10156000A10A821B930B08952F923F924F925F9294
:101570006F927F928F929F92AF92BF92CF92DF92A3
:10158000EF92FF920F931F93CF93DF93CDB7DEB708
:10159000CA1BDB0B0FB6F894DEBF0FBECDBF09949C
:1015A0002A88398848885F846E847D848C849B84F3
:1015B000AA84B984C884DF80EE80FD800C811B8101
:1015C000AA81B981CE0FD11D0FB6F894DEBF0FBE30
:1015D000CDBFED010895A1E21A2EAA1BBB1BFD0190
:1015E0000DC0AA1FBB1FEE1FFF1FA217B307E40702
:1015F000F50720F0A21BB30BE40BF50B661F771F5A
:10160000881F991F1A9469F7609570958095909539
:101610009B01AC01BD01CF010895A29FB001B39F12
:10162000C001A39F700D811D1124911DB29F700DEB
:10163000811D1124911D0895EE0FFF1F0590F49157
:10164000E02D0994CF93DF938230910510F482E06E
:1016500090E0E091F802F091F90220E030E0C0E083
:10166000D0E0309711F14081518148175907C0F0FF
:101670004817590761F482819381209719F09B8361
:101680008A832BC09093F9028093F80226C021151B
:10169000310519F04217530718F49A01BE01DF0112
:1016A000EF010280F381E02DDCCF2115310509F136
:1016B000281B390B2430310590F412968D919C91A2
:1016C00013976115710521F0FB019383828304C098
:1016D0009093F9028093F802FD01329644C0FD0117
:1016E000E20FF31F81939193225031092D933C9384
:1016F0003AC02091F6023091F702232B41F4209159
:101700000201309103013093F7022093F6022091F9
:101710000001309101012115310541F42DB73EB78B
:101720004091040150910501241B350BE091F60214
:10173000F091F702E217F307A0F42E1B3F0B2817D6
:10174000390778F0AC014E5F5F4F2417350748F03A
:101750004E0F5F1F5093F7024093F60281939193CF
:1017600002C0E0E0F0E0CF01DF91CF9108950F9348
:101770001F93CF93DF93009709F48CC0FC0132973D
:10178000138212820091F8021091F90201151105DD
:1017900081F420813181820F931F2091F6023091D4
:1017A000F7022817390779F5F093F702E093F6026C
:1017B00071C0D80140E050E0AE17BF0750F4129658
:1017C0002D913C911397AD012115310509F1D901F6
:1017D000F3CF9D01DA013383228360817181860F0B
:1017E000971F8217930769F4EC0128813981260F2E
:1017F000371F2E5F3F4F318320838A819B819383E4
:101800008283452B29F4F093F902E093F80242C059
:101810001396FC93EE931297ED01499159919E0115
:10182000240F351FE217F30771F480819181840F33
:10183000951F029611969C938E93828193811396A5
:101840009C938E931297E0E0F0E0D80112968D9170
:101850009C911397009719F0F8018C01F6CF8D91A8
:101860009C9198012E5F3F4F820F931F2091F602AB
:101870003091F7022817390769F4309729F410924C
:10188000F9021092F80202C0138212821093F7023A
:101890000093F602DF91CF911F910F910895A0E080
:1018A000B0E0E5E5FCE00C94B80AEC01009721F407
:1018B000CB010E94220BB8C0FC01E60FF71F9C0170
:1018C00022503109E217F30708F4ACC0D9010D9199
:1018D0001C91119706171707B0F00530110508F491
:1018E0009FC0C80104978617970708F499C0025053
:1018F0001109061B170B019311936D937C93CF0174
:101900000E94B70B8DC05B01A01AB10A4C01800E7A
:10191000911EA091F802B091F90240E050E0E12C54
:10192000F12C109709F44AC0A815B905D1F56D90AE
:101930007C901197630182E0C80ED11CCA14DB04AD
:1019400080F1A3014A195B096A0182E0C80ED11C2B
:101950001296BC9012971396AC91B5E0CB16D104B9
:1019600040F0B282A38351834083D9016D937C936D
:101970000AC00E5F1F4FC301800F911FF9019183B1
:101980008083EB2DFA2FE114F10431F0D701139687
:10199000FC93EE93129744C0F093F902E093F8029F
:1019A0003FC08D919C9111974817590708F4AC01DD
:1019B0007D0112960D90BC91A02DB3CF8091F602BF
:1019C0009091F70288159905E1F446175707C8F476
:1019D0008091000190910101009741F48DB79EB76D
:1019E0004091040150910501841B950BE817F907FC
:1019F000C8F4F093F702E093F602F9017183608373
:101A00000FC0CB010E94220B7C01009759F0A80166
:101A1000BE010E941E0DCE010E94B70BC70104C07B
:101A2000CE0102C080E090E0CDB7DEB7EEE00C94CE
:101A3000D40A81E090E0F8940C942E0DFB01DC01B7
:101A400002C001900D9241505040D8F70895FB011B
:101A5000DC0101900D920020E1F70895F894FFCF8A
:101A60000000FA02800002000300040005000600E6
:101A70000700080009000A000B000C000D003200EE
:101A80003200320032003200320000003C005A00C6
:101A90003C00000000006400A000B400A00064004E
:101AA00064002D002D002D002D002D002D0087003D
:101AB0008700870087008700870000000000D001B2
:101AC000390168011702990177018B010D0A004461
:101AD000454255473A20004C65673A2000202F20A8
:101AE00050696E3A2000202F20417869733A200017
:101AF0005900202F20416E67756C6F3A2000494EC7
:101B0000494349414E444F00494E5354414E434985
:101B100041444F004D4F44453A204D414E55414CB4
:101B20000044454255473A204C4567203120464104
:101B30004C53450044454255473A204C6567203197
:101B400020545255450020536574706F696E74209F
:101B500058202D3E200020536574706F696E7420EC
:101B600059202D3E200020416E67756C6F202D3E60
:021B7000200053
:00000001FF
